{
  "contractName": "Bookchain",
  "abi": [
    {
      "inputs": [
        {
          "internalType": "address",
          "name": "TokenAddress",
          "type": "address"
        },
        {
          "internalType": "address",
          "name": "NFTAddress",
          "type": "address"
        }
      ],
      "stateMutability": "nonpayable",
      "type": "constructor"
    },
    {
      "anonymous": false,
      "inputs": [
        {
          "indexed": false,
          "internalType": "address",
          "name": "UserAddress",
          "type": "address"
        },
        {
          "indexed": false,
          "internalType": "uint256",
          "name": "bookid",
          "type": "uint256"
        },
        {
          "indexed": false,
          "internalType": "string",
          "name": "message",
          "type": "string"
        }
      ],
      "name": "BookMint",
      "type": "event"
    },
    {
      "anonymous": false,
      "inputs": [
        {
          "indexed": false,
          "internalType": "address",
          "name": "buyer",
          "type": "address"
        },
        {
          "indexed": false,
          "internalType": "address",
          "name": "owner",
          "type": "address"
        },
        {
          "indexed": false,
          "internalType": "uint256",
          "name": "bookid",
          "type": "uint256"
        },
        {
          "indexed": false,
          "internalType": "string",
          "name": "message",
          "type": "string"
        }
      ],
      "name": "NftTransfer",
      "type": "event"
    },
    {
      "anonymous": false,
      "inputs": [
        {
          "indexed": false,
          "internalType": "address",
          "name": "UserAddress",
          "type": "address"
        },
        {
          "indexed": false,
          "internalType": "string",
          "name": "username",
          "type": "string"
        },
        {
          "indexed": false,
          "internalType": "string",
          "name": "message",
          "type": "string"
        }
      ],
      "name": "UserSignup",
      "type": "event"
    },
    {
      "inputs": [
        {
          "internalType": "uint256",
          "name": "",
          "type": "uint256"
        }
      ],
      "name": "BookTable",
      "outputs": [
        {
          "internalType": "address",
          "name": "owner",
          "type": "address"
        },
        {
          "internalType": "string",
          "name": "bookname",
          "type": "string"
        },
        {
          "internalType": "uint256",
          "name": "bookid",
          "type": "uint256"
        },
        {
          "internalType": "string",
          "name": "bookId",
          "type": "string"
        }
      ],
      "stateMutability": "view",
      "type": "function",
      "constant": true
    },
    {
      "inputs": [
        {
          "internalType": "address",
          "name": "",
          "type": "address"
        },
        {
          "internalType": "uint256",
          "name": "",
          "type": "uint256"
        }
      ],
      "name": "UserBookTable",
      "outputs": [
        {
          "internalType": "uint256",
          "name": "",
          "type": "uint256"
        }
      ],
      "stateMutability": "view",
      "type": "function",
      "constant": true
    },
    {
      "inputs": [
        {
          "internalType": "address",
          "name": "",
          "type": "address"
        }
      ],
      "name": "UserTable",
      "outputs": [
        {
          "internalType": "string",
          "name": "username",
          "type": "string"
        },
        {
          "internalType": "string",
          "name": "userId",
          "type": "string"
        },
        {
          "internalType": "uint256",
          "name": "flag",
          "type": "uint256"
        }
      ],
      "stateMutability": "view",
      "type": "function",
      "constant": true
    },
    {
      "inputs": [
        {
          "internalType": "address",
          "name": "UserAddress",
          "type": "address"
        },
        {
          "internalType": "string",
          "name": "username",
          "type": "string"
        },
        {
          "internalType": "string",
          "name": "userId",
          "type": "string"
        }
      ],
      "name": "NewUser",
      "outputs": [],
      "stateMutability": "nonpayable",
      "type": "function"
    },
    {
      "inputs": [
        {
          "internalType": "address",
          "name": "UserAddress",
          "type": "address"
        },
        {
          "internalType": "uint256",
          "name": "bookid",
          "type": "uint256"
        },
        {
          "internalType": "string",
          "name": "bookname",
          "type": "string"
        },
        {
          "internalType": "string",
          "name": "bookId",
          "type": "string"
        }
      ],
      "name": "NewBook",
      "outputs": [],
      "stateMutability": "nonpayable",
      "type": "function"
    },
    {
      "inputs": [
        {
          "internalType": "address payable",
          "name": "owner",
          "type": "address"
        },
        {
          "internalType": "address payable",
          "name": "buyer",
          "type": "address"
        },
        {
          "internalType": "uint256",
          "name": "bookid",
          "type": "uint256"
        },
        {
          "internalType": "uint256",
          "name": "PriceNFT",
          "type": "uint256"
        }
      ],
      "name": "BuyNFT",
      "outputs": [],
      "stateMutability": "nonpayable",
      "type": "function"
    },
    {
      "inputs": [
        {
          "internalType": "address",
          "name": "UserAddress",
          "type": "address"
        }
      ],
      "name": "UserBalance",
      "outputs": [
        {
          "internalType": "uint256",
          "name": "",
          "type": "uint256"
        }
      ],
      "stateMutability": "view",
      "type": "function",
      "constant": true
    },
    {
      "inputs": [],
      "name": "ContractBalance",
      "outputs": [
        {
          "internalType": "uint256",
          "name": "",
          "type": "uint256"
        }
      ],
      "stateMutability": "view",
      "type": "function",
      "constant": true
    }
  ],
  "bytecode": "0x60806040523480156200001157600080fd5b50604051620022b1380380620022b18339818101604052810190620000379190620001b9565b816000806101000a81548173ffffffffffffffffffffffffffffffffffffffff021916908373ffffffffffffffffffffffffffffffffffffffff16021790555080600160006101000a81548173ffffffffffffffffffffffffffffffffffffffff021916908373ffffffffffffffffffffffffffffffffffffffff16021790555060008054906101000a900473ffffffffffffffffffffffffffffffffffffffff1673ffffffffffffffffffffffffffffffffffffffff1663185e162a306040518263ffffffff1660e01b815260040162000113919062000211565b600060405180830381600087803b1580156200012e57600080fd5b505af115801562000143573d6000803e3d6000fd5b5050505050506200022e565b600080fd5b600073ffffffffffffffffffffffffffffffffffffffff82169050919050565b6000620001818262000154565b9050919050565b620001938162000174565b81146200019f57600080fd5b50565b600081519050620001b38162000188565b92915050565b60008060408385031215620001d357620001d26200014f565b5b6000620001e385828601620001a2565b9250506020620001f685828601620001a2565b9150509250929050565b6200020b8162000174565b82525050565b600060208201905062000228600083018462000200565b92915050565b612073806200023e6000396000f3fe608060405234801561001057600080fd5b50600436106100885760003560e01c80639e2960cb1161005b5780639e2960cb14610113578063d729262114610143578063e356777414610175578063fb88cb461461019157610088565b80633b6680591461008d5780634638146f146100ab5780634ddffe54146100db578063906511bd146100f7575b600080fd5b6100956101c4565b6040516100a2919061113d565b60405180910390f35b6100c560048036038101906100c091906111f6565b610266565b6040516100d2919061113d565b60405180910390f35b6100f560048036038101906100f0919061137c565b610297565b005b610111600480360381019061010c9190611407565b610491565b005b61012d600480360381019061012891906114a6565b610718565b60405161013a919061113d565b60405180910390f35b61015d600480360381019061015891906114a6565b6107bc565b60405161016c93929190611552565b60405180910390f35b61018f600480360381019061018a91906115d5565b6108f6565b005b6101ab60048036038101906101a6919061163c565b610fc4565b6040516101bb9493929190611678565b60405180910390f35b60008060009054906101000a900473ffffffffffffffffffffffffffffffffffffffff1673ffffffffffffffffffffffffffffffffffffffff166370a08231306040518263ffffffff1660e01b815260040161022091906116cb565b602060405180830381865afa15801561023d573d6000803e3d6000fd5b505050506040513d601f19601f8201168201806040525081019061026191906116fb565b905090565b6003602052816000526040600020818154811061028257600080fd5b90600052602060002001600091509150505481565b826000600260008373ffffffffffffffffffffffffffffffffffffffff1673ffffffffffffffffffffffffffffffffffffffff168152602001908152602001600020600201541461031d576040517f08c379a000000000000000000000000000000000000000000000000000000000815260040161031490611774565b60405180910390fd5b60405180606001604052808481526020018381526020016001815250600260008673ffffffffffffffffffffffffffffffffffffffff1673ffffffffffffffffffffffffffffffffffffffff168152602001908152602001600020600082015181600001908161038d91906119a0565b5060208201518160010190816103a391906119a0565b506040820151816002015590505060008054906101000a900473ffffffffffffffffffffffffffffffffffffffff1673ffffffffffffffffffffffffffffffffffffffff1663a9059cbb856103e86040518363ffffffff1660e01b815260040161040e929190611aad565b6020604051808303816000875af115801561042d573d6000803e3d6000fd5b505050506040513d601f19601f820116820180604052508101906104519190611b0e565b507f9289e0982f855299f3431db31a32dcc04a92b6ad736298be14f2a3e565e0b0e78484604051610483929190611b87565b60405180910390a150505050565b836001600260008373ffffffffffffffffffffffffffffffffffffffff1673ffffffffffffffffffffffffffffffffffffffff1681526020019081526020016000206002015414610517576040517f08c379a000000000000000000000000000000000000000000000000000000000815260040161050e90611c16565b60405180910390fd5b600360008673ffffffffffffffffffffffffffffffffffffffff1673ffffffffffffffffffffffffffffffffffffffff16815260200190815260200160002084908060018154018082558091505060019003906000526020600020016000909190919091505560405180608001604052808673ffffffffffffffffffffffffffffffffffffffff168152602001848152602001858152602001838152506004600086815260200190815260200160002060008201518160000160006101000a81548173ffffffffffffffffffffffffffffffffffffffff021916908373ffffffffffffffffffffffffffffffffffffffff160217905550602082015181600101908161062391906119a0565b5060408201518160020155606082015181600301908161064391906119a0565b50905050600160009054906101000a900473ffffffffffffffffffffffffffffffffffffffff1673ffffffffffffffffffffffffffffffffffffffff1663b5b3a7988630876040518463ffffffff1660e01b81526004016106a693929190611c36565b600060405180830381600087803b1580156106c057600080fd5b505af11580156106d4573d6000803e3d6000fd5b505050507fd90f4a52f6619ab2982a946efc93cb70ba8f2458917e53045298d2bc61715e4e8585604051610709929190611cb9565b60405180910390a15050505050565b60008060009054906101000a900473ffffffffffffffffffffffffffffffffffffffff1673ffffffffffffffffffffffffffffffffffffffff166370a08231836040518263ffffffff1660e01b815260040161077491906116cb565b602060405180830381865afa158015610791573d6000803e3d6000fd5b505050506040513d601f19601f820116820180604052508101906107b591906116fb565b9050919050565b60026020528060005260406000206000915090508060000180546107df906117c3565b80601f016020809104026020016040519081016040528092919081815260200182805461080b906117c3565b80156108585780601f1061082d57610100808354040283529160200191610858565b820191906000526020600020905b81548152906001019060200180831161083b57829003601f168201915b50505050509080600101805461086d906117c3565b80601f0160208091040260200160405190810160405280929190818152602001828054610899906117c3565b80156108e65780601f106108bb576101008083540402835291602001916108e6565b820191906000526020600020905b8154815290600101906020018083116108c957829003601f168201915b5050505050908060020154905083565b82848073ffffffffffffffffffffffffffffffffffffffff168273ffffffffffffffffffffffffffffffffffffffff1603610966576040517f08c379a000000000000000000000000000000000000000000000000000000000815260040161095d90611d41565b60405180910390fd5b84838061097283610718565b10156109b3576040517f08c379a00000000000000000000000000000000000000000000000000000000081526004016109aa90611dad565b60405180910390fd5b600160009054906101000a900473ffffffffffffffffffffffffffffffffffffffff1673ffffffffffffffffffffffffffffffffffffffff1663a45e6a77898989306040518563ffffffff1660e01b8152600401610a149493929190611e22565b600060405180830381600087803b158015610a2e57600080fd5b505af1158015610a42573d6000803e3d6000fd5b5050505060008054906101000a900473ffffffffffffffffffffffffffffffffffffffff1673ffffffffffffffffffffffffffffffffffffffff166358908a0f888a886040518463ffffffff1660e01b8152600401610aa393929190611e67565b600060405180830381600087803b158015610abd57600080fd5b505af1158015610ad1573d6000803e3d6000fd5b50505050600360008873ffffffffffffffffffffffffffffffffffffffff1673ffffffffffffffffffffffffffffffffffffffff16815260200190815260200160002086908060018154018082558091505060019003906000526020600020016000909190919091505560005b600360008a73ffffffffffffffffffffffffffffffffffffffff1673ffffffffffffffffffffffffffffffffffffffff16815260200190815260200160002080549050811015610d6c5786600360008b73ffffffffffffffffffffffffffffffffffffffff1673ffffffffffffffffffffffffffffffffffffffff1681526020019081526020016000208281548110610bda57610bd9611e9e565b5b906000526020600020015403610d5957600360008a73ffffffffffffffffffffffffffffffffffffffff1673ffffffffffffffffffffffffffffffffffffffff1681526020019081526020016000206001600360008c73ffffffffffffffffffffffffffffffffffffffff1673ffffffffffffffffffffffffffffffffffffffff16815260200190815260200160002080549050610c789190611efc565b81548110610c8957610c88611e9e565b5b9060005260206000200154600360008b73ffffffffffffffffffffffffffffffffffffffff1673ffffffffffffffffffffffffffffffffffffffff1681526020019081526020016000208281548110610ce557610ce4611e9e565b5b9060005260206000200181905550600360008a73ffffffffffffffffffffffffffffffffffffffff1673ffffffffffffffffffffffffffffffffffffffff168152602001908152602001600020805480610d4257610d41611f30565b5b600190038181906000526020600020016000905590555b8080610d6490611f5f565b915050610b3e565b506000600460008881526020019081526020016000206001018054610d90906117c3565b80601f0160208091040260200160405190810160405280929190818152602001828054610dbc906117c3565b8015610e095780601f10610dde57610100808354040283529160200191610e09565b820191906000526020600020905b815481529060010190602001808311610dec57829003601f168201915b505050505090506000600460008981526020019081526020016000206003018054610e33906117c3565b80601f0160208091040260200160405190810160405280929190818152602001828054610e5f906117c3565b8015610eac5780601f10610e8157610100808354040283529160200191610eac565b820191906000526020600020905b815481529060010190602001808311610e8f57829003601f168201915b5050505050905060405180608001604052808a73ffffffffffffffffffffffffffffffffffffffff16815260200183815260200189815260200182815250600460008a815260200190815260200160002060008201518160000160006101000a81548173ffffffffffffffffffffffffffffffffffffffff021916908373ffffffffffffffffffffffffffffffffffffffff1602179055506020820151816001019081610f5991906119a0565b50604082015181600201556060820151816003019081610f7991906119a0565b509050507f055fd24e4c97e2beae9b5a44a2ea01fe98bdcbf8bdfcfe13ebb7edee9b474ab5898b8a604051610fb093929190611ff3565b60405180910390a150505050505050505050565b60046020528060005260406000206000915090508060000160009054906101000a900473ffffffffffffffffffffffffffffffffffffffff169080600101805461100d906117c3565b80601f0160208091040260200160405190810160405280929190818152602001828054611039906117c3565b80156110865780601f1061105b57610100808354040283529160200191611086565b820191906000526020600020905b81548152906001019060200180831161106957829003601f168201915b5050505050908060020154908060030180546110a1906117c3565b80601f01602080910402602001604051908101604052809291908181526020018280546110cd906117c3565b801561111a5780601f106110ef5761010080835404028352916020019161111a565b820191906000526020600020905b8154815290600101906020018083116110fd57829003601f168201915b5050505050905084565b6000819050919050565b61113781611124565b82525050565b6000602082019050611152600083018461112e565b92915050565b6000604051905090565b600080fd5b600080fd5b600073ffffffffffffffffffffffffffffffffffffffff82169050919050565b60006111978261116c565b9050919050565b6111a78161118c565b81146111b257600080fd5b50565b6000813590506111c48161119e565b92915050565b6111d381611124565b81146111de57600080fd5b50565b6000813590506111f0816111ca565b92915050565b6000806040838503121561120d5761120c611162565b5b600061121b858286016111b5565b925050602061122c858286016111e1565b9150509250929050565b600080fd5b600080fd5b6000601f19601f8301169050919050565b7f4e487b7100000000000000000000000000000000000000000000000000000000600052604160045260246000fd5b61128982611240565b810181811067ffffffffffffffff821117156112a8576112a7611251565b5b80604052505050565b60006112bb611158565b90506112c78282611280565b919050565b600067ffffffffffffffff8211156112e7576112e6611251565b5b6112f082611240565b9050602081019050919050565b82818337600083830152505050565b600061131f61131a846112cc565b6112b1565b90508281526020810184848401111561133b5761133a61123b565b5b6113468482856112fd565b509392505050565b600082601f83011261136357611362611236565b5b813561137384826020860161130c565b91505092915050565b60008060006060848603121561139557611394611162565b5b60006113a3868287016111b5565b935050602084013567ffffffffffffffff8111156113c4576113c3611167565b5b6113d08682870161134e565b925050604084013567ffffffffffffffff8111156113f1576113f0611167565b5b6113fd8682870161134e565b9150509250925092565b6000806000806080858703121561142157611420611162565b5b600061142f878288016111b5565b9450506020611440878288016111e1565b935050604085013567ffffffffffffffff81111561146157611460611167565b5b61146d8782880161134e565b925050606085013567ffffffffffffffff81111561148e5761148d611167565b5b61149a8782880161134e565b91505092959194509250565b6000602082840312156114bc576114bb611162565b5b60006114ca848285016111b5565b91505092915050565b600081519050919050565b600082825260208201905092915050565b60005b8381101561150d5780820151818401526020810190506114f2565b60008484015250505050565b6000611524826114d3565b61152e81856114de565b935061153e8185602086016114ef565b61154781611240565b840191505092915050565b6000606082019050818103600083015261156c8186611519565b905081810360208301526115808185611519565b905061158f604083018461112e565b949350505050565b60006115a28261116c565b9050919050565b6115b281611597565b81146115bd57600080fd5b50565b6000813590506115cf816115a9565b92915050565b600080600080608085870312156115ef576115ee611162565b5b60006115fd878288016115c0565b945050602061160e878288016115c0565b935050604061161f878288016111e1565b9250506060611630878288016111e1565b91505092959194509250565b60006020828403121561165257611651611162565b5b6000611660848285016111e1565b91505092915050565b6116728161118c565b82525050565b600060808201905061168d6000830187611669565b818103602083015261169f8186611519565b90506116ae604083018561112e565b81810360608301526116c08184611519565b905095945050505050565b60006020820190506116e06000830184611669565b92915050565b6000815190506116f5816111ca565b92915050565b60006020828403121561171157611710611162565b5b600061171f848285016116e6565b91505092915050565b7f546865207573657220616c726561647920657869737473202100000000000000600082015250565b600061175e6019836114de565b915061176982611728565b602082019050919050565b6000602082019050818103600083015261178d81611751565b9050919050565b7f4e487b7100000000000000000000000000000000000000000000000000000000600052602260045260246000fd5b600060028204905060018216806117db57607f821691505b6020821081036117ee576117ed611794565b5b50919050565b60008190508160005260206000209050919050565b60006020601f8301049050919050565b600082821b905092915050565b6000600883026118567fffffffffffffffffffffffffffffffffffffffffffffffffffffffffffffffff82611819565b6118608683611819565b95508019841693508086168417925050509392505050565b6000819050919050565b600061189d61189861189384611124565b611878565b611124565b9050919050565b6000819050919050565b6118b783611882565b6118cb6118c3826118a4565b848454611826565b825550505050565b600090565b6118e06118d3565b6118eb8184846118ae565b505050565b5b8181101561190f576119046000826118d8565b6001810190506118f1565b5050565b601f82111561195457611925816117f4565b61192e84611809565b8101602085101561193d578190505b61195161194985611809565b8301826118f0565b50505b505050565b600082821c905092915050565b600061197760001984600802611959565b1980831691505092915050565b60006119908383611966565b9150826002028217905092915050565b6119a9826114d3565b67ffffffffffffffff8111156119c2576119c1611251565b5b6119cc82546117c3565b6119d7828285611913565b600060209050601f831160018114611a0a57600084156119f8578287015190505b611a028582611984565b865550611a6a565b601f198416611a18866117f4565b60005b82811015611a4057848901518255600182019150602085019450602081019050611a1b565b86831015611a5d5784890151611a59601f891682611966565b8355505b6001600288020188555050505b505050505050565b6000819050919050565b6000611a97611a92611a8d84611a72565b611878565b611124565b9050919050565b611aa781611a7c565b82525050565b6000604082019050611ac26000830185611669565b611acf6020830184611a9e565b9392505050565b60008115159050919050565b611aeb81611ad6565b8114611af657600080fd5b50565b600081519050611b0881611ae2565b92915050565b600060208284031215611b2457611b23611162565b5b6000611b3284828501611af9565b91505092915050565b7f4e65772055736572205369676e65642055700000000000000000000000000000600082015250565b6000611b716012836114de565b9150611b7c82611b3b565b602082019050919050565b6000606082019050611b9c6000830185611669565b8181036020830152611bae8184611519565b90508181036040830152611bc181611b64565b90509392505050565b7f546865207573657220646f6573206e6f74206578697374202100000000000000600082015250565b6000611c006019836114de565b9150611c0b82611bca565b602082019050919050565b60006020820190508181036000830152611c2f81611bf3565b9050919050565b6000606082019050611c4b6000830186611669565b611c586020830185611669565b611c65604083018461112e565b949350505050565b7f4e657720426f6f6b204e4654204d696e74656400000000000000000000000000600082015250565b6000611ca36013836114de565b9150611cae82611c6d565b602082019050919050565b6000606082019050611cce6000830185611669565b611cdb602083018461112e565b8181036040830152611cec81611c96565b90509392505050565b7f427579657220697320746865206f776e65720000000000000000000000000000600082015250565b6000611d2b6012836114de565b9150611d3682611cf5565b602082019050919050565b60006020820190508181036000830152611d5a81611d1e565b9050919050565b7f496e73756666696369656e742046756e64732021000000000000000000000000600082015250565b6000611d976014836114de565b9150611da282611d61565b602082019050919050565b60006020820190508181036000830152611dc681611d8a565b9050919050565b6000611de8611de3611dde8461116c565b611878565b61116c565b9050919050565b6000611dfa82611dcd565b9050919050565b6000611e0c82611def565b9050919050565b611e1c81611e01565b82525050565b6000608082019050611e376000830187611e13565b611e446020830186611e13565b611e51604083018561112e565b611e5e6060830184611669565b95945050505050565b6000606082019050611e7c6000830186611e13565b611e896020830185611e13565b611e96604083018461112e565b949350505050565b7f4e487b7100000000000000000000000000000000000000000000000000000000600052603260045260246000fd5b7f4e487b7100000000000000000000000000000000000000000000000000000000600052601160045260246000fd5b6000611f0782611124565b9150611f1283611124565b9250828203905081811115611f2a57611f29611ecd565b5b92915050565b7f4e487b7100000000000000000000000000000000000000000000000000000000600052603160045260246000fd5b6000611f6a82611124565b91507fffffffffffffffffffffffffffffffffffffffffffffffffffffffffffffffff8203611f9c57611f9b611ecd565b5b600182019050919050565b7f426f6f6b204e4654205472616e73666572726564000000000000000000000000600082015250565b6000611fdd6014836114de565b9150611fe882611fa7565b602082019050919050565b60006080820190506120086000830186611e13565b6120156020830185611e13565b612022604083018461112e565b818103606083015261203381611fd0565b905094935050505056fea2646970667358221220cf97968f976a3e4d35c0f5c98c7a1b265b27e2e180789bd3f9c3b434cd1b32fe64736f6c63430008130033",
  "immutableReferences": {},
  "source": "//SPDX-License-Identifier: UNLICENSED\npragma solidity ^0.8.0;\n\nimport \"@openzeppelin/contracts/token/ERC20/ERC20.sol\";\nimport \"@openzeppelin/contracts/token/ERC721/ERC721.sol\";\nimport \"./Bookies.sol\";\nimport \"./BookNFT.sol\";\n\n// Application Smart Contract\ncontract Bookchain { \n    Bookies token;\n    BookNFT nft;\n\n    struct Book {\n        address owner;\n        string bookname;\n        uint256 bookid; \n        string bookId;\n    }\n\n    struct User {\n        string username;\n        string userId;\n        uint256 flag;\n    }\n\n    // Mappings \n    mapping (address => User) public UserTable;\n    mapping (address => uint256[]) public UserBookTable;\n    mapping (uint256 => Book) public BookTable;\n\n    constructor(address TokenAddress, address NFTAddress) {\n        token = Bookies(TokenAddress);\n        nft = BookNFT(NFTAddress);\n        token.GenerateToken(address(this));\n    }\n\n    // Events\n    event UserSignup(address UserAddress, string username, string message);\n    event BookMint(address UserAddress, uint256 bookid, string message);\n    event NftTransfer(address buyer, address owner, uint256 bookid, string message);\n\n    // Modifiers\n    modifier NotOwner(address buyer, address owner) {\n        require(buyer != owner, \"Buyer is the owner\");\n        _;\n    }\n\n    modifier ValidUser(address UserAddress) {\n        require(UserTable[UserAddress].flag == 1, \"The user does not exist !\");\n        _;\n    }\n\n    modifier ExistingUser(address UserAddress) {\n        require(UserTable[UserAddress].flag == 0, \"The user already exists !\");\n        _;\n    }\n\n    modifier SufficientFunds(address UserAddress, uint256 PriceNFT) {\n        require(UserBalance(UserAddress) >= PriceNFT, \"Insufficient Funds !\");\n        _;\n    }\n    \n    // Functions\n    function NewUser(address UserAddress, string memory username, string memory userId) public ExistingUser(UserAddress) {\n        UserTable[UserAddress] = User(username,userId, 1);\n        token.transfer(UserAddress, 1000);\n\n        emit UserSignup(UserAddress, username, \"New User Signed Up\");\n    }\n\n    function NewBook(address UserAddress, uint256 bookid, string memory bookname, string memory bookId) public ValidUser(UserAddress) {\n        UserBookTable[UserAddress].push(bookid);\n        BookTable[bookid] = Book(UserAddress, bookname, bookid, bookId);\n        nft.MintNFT(UserAddress, address(this), bookid);\n\n        emit BookMint(UserAddress, bookid, \"New Book NFT Minted\");\n    }\n\n    function BuyNFT(address payable owner, address payable buyer, uint256 bookid, uint256 PriceNFT) public NotOwner(buyer, owner) SufficientFunds(buyer, PriceNFT) {\n        nft.TransferNFT(owner, buyer, bookid, address(this));\n        token.TransferTokens(buyer, owner, PriceNFT);\n        UserBookTable[buyer].push(bookid);\n\n        // Move last value to index of to be removed value and pop to remove last value\n\n        for(uint i=0;i<UserBookTable[owner].length;i++){\n            if(UserBookTable[owner][i] == bookid){\n                UserBookTable[owner][i] = UserBookTable[owner][UserBookTable[owner].length-1];\n                UserBookTable[owner].pop();  \n            }\n        }\n\n        string memory bookname = BookTable[bookid].bookname;\n        string memory bookId = BookTable[bookid].bookId;\n        BookTable[bookid] = Book(buyer, bookname, bookid, bookId);\n\n        emit NftTransfer(buyer, owner, bookid, \"Book NFT Transferred\");\n    }\n    \n    function UserBalance(address UserAddress) view public returns(uint) {\n        return token.balanceOf(UserAddress);\n    }\n\n    function ContractBalance() view public returns(uint) {\n        return token.balanceOf(address(this));\n    }\n}\n\n",
  "sourcePath": "/Users/mohitsaiaravindnunna/Documents/BookChain-Dapp/BookChain-Contract/contracts/Bookchain.sol",
  "compiler": {
    "name": "solc",
    "version": "0.8.19+commit.7dd6d404.Emscripten.clang"
  },
  "schemaVersion": "3.4.13",
  "updatedAt": "2023-05-08T01:28:01.135Z",
  "networkType": "ethereum",
  "devdoc": {
    "kind": "dev",
    "methods": {},
    "version": 1
  },
  "userdoc": {
    "kind": "user",
    "methods": {},
    "version": 1
  }
}