{
  "contractName": "Bookies",
  "abi": [
    {
      "inputs": [],
      "stateMutability": "nonpayable",
      "type": "constructor"
    },
    {
      "anonymous": false,
      "inputs": [
        {
          "indexed": true,
          "internalType": "address",
          "name": "owner",
          "type": "address"
        },
        {
          "indexed": true,
          "internalType": "address",
          "name": "spender",
          "type": "address"
        },
        {
          "indexed": false,
          "internalType": "uint256",
          "name": "value",
          "type": "uint256"
        }
      ],
      "name": "Approval",
      "type": "event"
    },
    {
      "anonymous": false,
      "inputs": [
        {
          "indexed": true,
          "internalType": "address",
          "name": "from",
          "type": "address"
        },
        {
          "indexed": true,
          "internalType": "address",
          "name": "to",
          "type": "address"
        },
        {
          "indexed": false,
          "internalType": "uint256",
          "name": "value",
          "type": "uint256"
        }
      ],
      "name": "Transfer",
      "type": "event"
    },
    {
      "inputs": [
        {
          "internalType": "address",
          "name": "owner",
          "type": "address"
        },
        {
          "internalType": "address",
          "name": "spender",
          "type": "address"
        }
      ],
      "name": "allowance",
      "outputs": [
        {
          "internalType": "uint256",
          "name": "",
          "type": "uint256"
        }
      ],
      "stateMutability": "view",
      "type": "function",
      "constant": true
    },
    {
      "inputs": [
        {
          "internalType": "address",
          "name": "spender",
          "type": "address"
        },
        {
          "internalType": "uint256",
          "name": "amount",
          "type": "uint256"
        }
      ],
      "name": "approve",
      "outputs": [
        {
          "internalType": "bool",
          "name": "",
          "type": "bool"
        }
      ],
      "stateMutability": "nonpayable",
      "type": "function"
    },
    {
      "inputs": [
        {
          "internalType": "address",
          "name": "account",
          "type": "address"
        }
      ],
      "name": "balanceOf",
      "outputs": [
        {
          "internalType": "uint256",
          "name": "",
          "type": "uint256"
        }
      ],
      "stateMutability": "view",
      "type": "function",
      "constant": true
    },
    {
      "inputs": [],
      "name": "decimals",
      "outputs": [
        {
          "internalType": "uint8",
          "name": "",
          "type": "uint8"
        }
      ],
      "stateMutability": "view",
      "type": "function",
      "constant": true
    },
    {
      "inputs": [
        {
          "internalType": "address",
          "name": "spender",
          "type": "address"
        },
        {
          "internalType": "uint256",
          "name": "subtractedValue",
          "type": "uint256"
        }
      ],
      "name": "decreaseAllowance",
      "outputs": [
        {
          "internalType": "bool",
          "name": "",
          "type": "bool"
        }
      ],
      "stateMutability": "nonpayable",
      "type": "function"
    },
    {
      "inputs": [
        {
          "internalType": "address",
          "name": "spender",
          "type": "address"
        },
        {
          "internalType": "uint256",
          "name": "addedValue",
          "type": "uint256"
        }
      ],
      "name": "increaseAllowance",
      "outputs": [
        {
          "internalType": "bool",
          "name": "",
          "type": "bool"
        }
      ],
      "stateMutability": "nonpayable",
      "type": "function"
    },
    {
      "inputs": [],
      "name": "name",
      "outputs": [
        {
          "internalType": "string",
          "name": "",
          "type": "string"
        }
      ],
      "stateMutability": "view",
      "type": "function",
      "constant": true
    },
    {
      "inputs": [],
      "name": "symbol",
      "outputs": [
        {
          "internalType": "string",
          "name": "",
          "type": "string"
        }
      ],
      "stateMutability": "view",
      "type": "function",
      "constant": true
    },
    {
      "inputs": [],
      "name": "totalSupply",
      "outputs": [
        {
          "internalType": "uint256",
          "name": "",
          "type": "uint256"
        }
      ],
      "stateMutability": "view",
      "type": "function",
      "constant": true
    },
    {
      "inputs": [
        {
          "internalType": "address",
          "name": "to",
          "type": "address"
        },
        {
          "internalType": "uint256",
          "name": "amount",
          "type": "uint256"
        }
      ],
      "name": "transfer",
      "outputs": [
        {
          "internalType": "bool",
          "name": "",
          "type": "bool"
        }
      ],
      "stateMutability": "nonpayable",
      "type": "function"
    },
    {
      "inputs": [
        {
          "internalType": "address",
          "name": "from",
          "type": "address"
        },
        {
          "internalType": "address",
          "name": "to",
          "type": "address"
        },
        {
          "internalType": "uint256",
          "name": "amount",
          "type": "uint256"
        }
      ],
      "name": "transferFrom",
      "outputs": [
        {
          "internalType": "bool",
          "name": "",
          "type": "bool"
        }
      ],
      "stateMutability": "nonpayable",
      "type": "function"
    },
    {
      "inputs": [
        {
          "internalType": "address",
          "name": "SmartContract",
          "type": "address"
        }
      ],
      "name": "GenerateToken",
      "outputs": [],
      "stateMutability": "nonpayable",
      "type": "function"
    },
    {
      "inputs": [
        {
          "internalType": "address",
          "name": "from",
          "type": "address"
        },
        {
          "internalType": "address",
          "name": "to",
          "type": "address"
        },
        {
          "internalType": "uint256",
          "name": "Token",
          "type": "uint256"
        }
      ],
      "name": "TransferTokens",
      "outputs": [],
      "stateMutability": "nonpayable",
      "type": "function"
    }
  ],
  "bytecode": "0x60806040523480156200001157600080fd5b506040518060400160405280600781526020017f426f6f6b696573000000000000000000000000000000000000000000000000008152506040518060400160405280600281526020017f424b00000000000000000000000000000000000000000000000000000000000081525081600390816200008f919062000324565b508060049081620000a1919062000324565b5050506200040b565b600081519050919050565b7f4e487b7100000000000000000000000000000000000000000000000000000000600052604160045260246000fd5b7f4e487b7100000000000000000000000000000000000000000000000000000000600052602260045260246000fd5b600060028204905060018216806200012c57607f821691505b602082108103620001425762000141620000e4565b5b50919050565b60008190508160005260206000209050919050565b60006020601f8301049050919050565b600082821b905092915050565b600060088302620001ac7fffffffffffffffffffffffffffffffffffffffffffffffffffffffffffffffff826200016d565b620001b886836200016d565b95508019841693508086168417925050509392505050565b6000819050919050565b6000819050919050565b600062000205620001ff620001f984620001d0565b620001da565b620001d0565b9050919050565b6000819050919050565b6200022183620001e4565b6200023962000230826200020c565b8484546200017a565b825550505050565b600090565b6200025062000241565b6200025d81848462000216565b505050565b5b8181101562000285576200027960008262000246565b60018101905062000263565b5050565b601f821115620002d4576200029e8162000148565b620002a9846200015d565b81016020851015620002b9578190505b620002d1620002c8856200015d565b83018262000262565b50505b505050565b600082821c905092915050565b6000620002f960001984600802620002d9565b1980831691505092915050565b6000620003148383620002e6565b9150826002028217905092915050565b6200032f82620000aa565b67ffffffffffffffff8111156200034b576200034a620000b5565b5b62000357825462000113565b6200036482828562000289565b600060209050601f8311600181146200039c576000841562000387578287015190505b62000393858262000306565b86555062000403565b601f198416620003ac8662000148565b60005b82811015620003d657848901518255600182019150602085019450602081019050620003af565b86831015620003f65784890151620003f2601f891682620002e6565b8355505b6001600288020188555050505b505050505050565b611475806200041b6000396000f3fe608060405234801561001057600080fd5b50600436106100cf5760003560e01c8063395093511161008c57806395d89b411161006657806395d89b4114610226578063a457c2d714610244578063a9059cbb14610274578063dd62ed3e146102a4576100cf565b806339509351146101aa57806358908a0f146101da57806370a08231146101f6576100cf565b806306fdde03146100d4578063095ea7b3146100f257806318160ddd14610122578063185e162a1461014057806323b872dd1461015c578063313ce5671461018c575b600080fd5b6100dc6102d4565b6040516100e99190610ce6565b60405180910390f35b61010c60048036038101906101079190610da1565b610366565b6040516101199190610dfc565b60405180910390f35b61012a610389565b6040516101379190610e26565b60405180910390f35b61015a60048036038101906101559190610e41565b610393565b005b61017660048036038101906101719190610e6e565b6103a9565b6040516101839190610dfc565b60405180910390f35b6101946103d8565b6040516101a19190610edd565b60405180910390f35b6101c460048036038101906101bf9190610da1565b6103e1565b6040516101d19190610dfc565b60405180910390f35b6101f460048036038101906101ef9190610e6e565b610418565b005b610210600480360381019061020b9190610e41565b610428565b60405161021d9190610e26565b60405180910390f35b61022e610470565b60405161023b9190610ce6565b60405180910390f35b61025e60048036038101906102599190610da1565b610502565b60405161026b9190610dfc565b60405180910390f35b61028e60048036038101906102899190610da1565b610579565b60405161029b9190610dfc565b60405180910390f35b6102be60048036038101906102b99190610ef8565b61059c565b6040516102cb9190610e26565b60405180910390f35b6060600380546102e390610f67565b80601f016020809104026020016040519081016040528092919081815260200182805461030f90610f67565b801561035c5780601f106103315761010080835404028352916020019161035c565b820191906000526020600020905b81548152906001019060200180831161033f57829003601f168201915b5050505050905090565b600080610371610623565b905061037e81858561062b565b600191505092915050565b6000600254905090565b6103a68168056bc75e2d631000006107f4565b50565b6000806103b4610623565b90506103c185828561094a565b6103cc8585856109d6565b60019150509392505050565b60006012905090565b6000806103ec610623565b905061040d8185856103fe858961059c565b6104089190610fc7565b61062b565b600191505092915050565b6104238383836109d6565b505050565b60008060008373ffffffffffffffffffffffffffffffffffffffff1673ffffffffffffffffffffffffffffffffffffffff168152602001908152602001600020549050919050565b60606004805461047f90610f67565b80601f01602080910402602001604051908101604052809291908181526020018280546104ab90610f67565b80156104f85780601f106104cd576101008083540402835291602001916104f8565b820191906000526020600020905b8154815290600101906020018083116104db57829003601f168201915b5050505050905090565b60008061050d610623565b9050600061051b828661059c565b905083811015610560576040517f08c379a00000000000000000000000000000000000000000000000000000000081526004016105579061106d565b60405180910390fd5b61056d828686840361062b565b60019250505092915050565b600080610584610623565b90506105918185856109d6565b600191505092915050565b6000600160008473ffffffffffffffffffffffffffffffffffffffff1673ffffffffffffffffffffffffffffffffffffffff16815260200190815260200160002060008373ffffffffffffffffffffffffffffffffffffffff1673ffffffffffffffffffffffffffffffffffffffff16815260200190815260200160002054905092915050565b600033905090565b600073ffffffffffffffffffffffffffffffffffffffff168373ffffffffffffffffffffffffffffffffffffffff160361069a576040517f08c379a0000000000000000000000000000000000000000000000000000000008152600401610691906110ff565b60405180910390fd5b600073ffffffffffffffffffffffffffffffffffffffff168273ffffffffffffffffffffffffffffffffffffffff1603610709576040517f08c379a000000000000000000000000000000000000000000000000000000000815260040161070090611191565b60405180910390fd5b80600160008573ffffffffffffffffffffffffffffffffffffffff1673ffffffffffffffffffffffffffffffffffffffff16815260200190815260200160002060008473ffffffffffffffffffffffffffffffffffffffff1673ffffffffffffffffffffffffffffffffffffffff168152602001908152602001600020819055508173ffffffffffffffffffffffffffffffffffffffff168373ffffffffffffffffffffffffffffffffffffffff167f8c5be1e5ebec7d5bd14f71427d1e84f3dd0314c0f7b2291e5b200ac8c7c3b925836040516107e79190610e26565b60405180910390a3505050565b600073ffffffffffffffffffffffffffffffffffffffff168273ffffffffffffffffffffffffffffffffffffffff1603610863576040517f08c379a000000000000000000000000000000000000000000000000000000000815260040161085a906111fd565b60405180910390fd5b61086f60008383610c4c565b80600260008282546108819190610fc7565b92505081905550806000808473ffffffffffffffffffffffffffffffffffffffff1673ffffffffffffffffffffffffffffffffffffffff168152602001908152602001600020600082825401925050819055508173ffffffffffffffffffffffffffffffffffffffff16600073ffffffffffffffffffffffffffffffffffffffff167fddf252ad1be2c89b69c2b068fc378daa952ba7f163c4a11628f55a4df523b3ef836040516109329190610e26565b60405180910390a361094660008383610c51565b5050565b6000610956848461059c565b90507fffffffffffffffffffffffffffffffffffffffffffffffffffffffffffffffff81146109d057818110156109c2576040517f08c379a00000000000000000000000000000000000000000000000000000000081526004016109b990611269565b60405180910390fd5b6109cf848484840361062b565b5b50505050565b600073ffffffffffffffffffffffffffffffffffffffff168373ffffffffffffffffffffffffffffffffffffffff1603610a45576040517f08c379a0000000000000000000000000000000000000000000000000000000008152600401610a3c906112fb565b60405180910390fd5b600073ffffffffffffffffffffffffffffffffffffffff168273ffffffffffffffffffffffffffffffffffffffff1603610ab4576040517f08c379a0000000000000000000000000000000000000000000000000000000008152600401610aab9061138d565b60405180910390fd5b610abf838383610c4c565b60008060008573ffffffffffffffffffffffffffffffffffffffff1673ffffffffffffffffffffffffffffffffffffffff16815260200190815260200160002054905081811015610b45576040517f08c379a0000000000000000000000000000000000000000000000000000000008152600401610b3c9061141f565b60405180910390fd5b8181036000808673ffffffffffffffffffffffffffffffffffffffff1673ffffffffffffffffffffffffffffffffffffffff16815260200190815260200160002081905550816000808573ffffffffffffffffffffffffffffffffffffffff1673ffffffffffffffffffffffffffffffffffffffff168152602001908152602001600020600082825401925050819055508273ffffffffffffffffffffffffffffffffffffffff168473ffffffffffffffffffffffffffffffffffffffff167fddf252ad1be2c89b69c2b068fc378daa952ba7f163c4a11628f55a4df523b3ef84604051610c339190610e26565b60405180910390a3610c46848484610c51565b50505050565b505050565b505050565b600081519050919050565b600082825260208201905092915050565b60005b83811015610c90578082015181840152602081019050610c75565b60008484015250505050565b6000601f19601f8301169050919050565b6000610cb882610c56565b610cc28185610c61565b9350610cd2818560208601610c72565b610cdb81610c9c565b840191505092915050565b60006020820190508181036000830152610d008184610cad565b905092915050565b600080fd5b600073ffffffffffffffffffffffffffffffffffffffff82169050919050565b6000610d3882610d0d565b9050919050565b610d4881610d2d565b8114610d5357600080fd5b50565b600081359050610d6581610d3f565b92915050565b6000819050919050565b610d7e81610d6b565b8114610d8957600080fd5b50565b600081359050610d9b81610d75565b92915050565b60008060408385031215610db857610db7610d08565b5b6000610dc685828601610d56565b9250506020610dd785828601610d8c565b9150509250929050565b60008115159050919050565b610df681610de1565b82525050565b6000602082019050610e116000830184610ded565b92915050565b610e2081610d6b565b82525050565b6000602082019050610e3b6000830184610e17565b92915050565b600060208284031215610e5757610e56610d08565b5b6000610e6584828501610d56565b91505092915050565b600080600060608486031215610e8757610e86610d08565b5b6000610e9586828701610d56565b9350506020610ea686828701610d56565b9250506040610eb786828701610d8c565b9150509250925092565b600060ff82169050919050565b610ed781610ec1565b82525050565b6000602082019050610ef26000830184610ece565b92915050565b60008060408385031215610f0f57610f0e610d08565b5b6000610f1d85828601610d56565b9250506020610f2e85828601610d56565b9150509250929050565b7f4e487b7100000000000000000000000000000000000000000000000000000000600052602260045260246000fd5b60006002820490506001821680610f7f57607f821691505b602082108103610f9257610f91610f38565b5b50919050565b7f4e487b7100000000000000000000000000000000000000000000000000000000600052601160045260246000fd5b6000610fd282610d6b565b9150610fdd83610d6b565b9250828201905080821115610ff557610ff4610f98565b5b92915050565b7f45524332303a2064656372656173656420616c6c6f77616e63652062656c6f7760008201527f207a65726f000000000000000000000000000000000000000000000000000000602082015250565b6000611057602583610c61565b915061106282610ffb565b604082019050919050565b600060208201905081810360008301526110868161104a565b9050919050565b7f45524332303a20617070726f76652066726f6d20746865207a65726f2061646460008201527f7265737300000000000000000000000000000000000000000000000000000000602082015250565b60006110e9602483610c61565b91506110f48261108d565b604082019050919050565b60006020820190508181036000830152611118816110dc565b9050919050565b7f45524332303a20617070726f766520746f20746865207a65726f20616464726560008201527f7373000000000000000000000000000000000000000000000000000000000000602082015250565b600061117b602283610c61565b91506111868261111f565b604082019050919050565b600060208201905081810360008301526111aa8161116e565b9050919050565b7f45524332303a206d696e7420746f20746865207a65726f206164647265737300600082015250565b60006111e7601f83610c61565b91506111f2826111b1565b602082019050919050565b60006020820190508181036000830152611216816111da565b9050919050565b7f45524332303a20696e73756666696369656e7420616c6c6f77616e6365000000600082015250565b6000611253601d83610c61565b915061125e8261121d565b602082019050919050565b6000602082019050818103600083015261128281611246565b9050919050565b7f45524332303a207472616e736665722066726f6d20746865207a65726f20616460008201527f6472657373000000000000000000000000000000000000000000000000000000602082015250565b60006112e5602583610c61565b91506112f082611289565b604082019050919050565b60006020820190508181036000830152611314816112d8565b9050919050565b7f45524332303a207472616e7366657220746f20746865207a65726f206164647260008201527f6573730000000000000000000000000000000000000000000000000000000000602082015250565b6000611377602383610c61565b91506113828261131b565b604082019050919050565b600060208201905081810360008301526113a68161136a565b9050919050565b7f45524332303a207472616e7366657220616d6f756e742065786365656473206260008201527f616c616e63650000000000000000000000000000000000000000000000000000602082015250565b6000611409602683610c61565b9150611414826113ad565b604082019050919050565b60006020820190508181036000830152611438816113fc565b905091905056fea2646970667358221220f0c8086e5231ca9de996668d5b07d942907b69c24e2bace772c490ecb7b36edf64736f6c63430008130033",
  "immutableReferences": {},
  "source": "//SPDX-License-Identifier: UNLICENSED\npragma solidity ^0.8.0;\n\nimport \"@openzeppelin/contracts/token/ERC20/ERC20.sol\";\nimport \"@openzeppelin/contracts/token/ERC721/ERC721.sol\";\n\n// Tokens for buying NFT\ncontract Bookies is ERC20 {\n    constructor() ERC20(\"Bookies\", \"BK\"){\n    }\n\n    function GenerateToken (address SmartContract) public {\n        _mint(SmartContract, 100 * 10 ** 18);\n    }\n\n    function TransferTokens (address from, address to, uint256 Token) public {\n        _transfer(from, to, Token);\n    }\n}",
  "sourcePath": "/Users/mohitsaiaravindnunna/Documents/BookChain-Dapp/BookChain-Contract/contracts/Bookies.sol",
  "compiler": {
    "name": "solc",
    "version": "0.8.19+commit.7dd6d404.Emscripten.clang"
  },
  "schemaVersion": "3.4.13",
  "updatedAt": "2023-05-08T01:28:01.146Z",
  "networkType": "ethereum",
  "devdoc": {
    "events": {
      "Approval(address,address,uint256)": {
        "details": "Emitted when the allowance of a `spender` for an `owner` is set by a call to {approve}. `value` is the new allowance."
      },
      "Transfer(address,address,uint256)": {
        "details": "Emitted when `value` tokens are moved from one account (`from`) to another (`to`). Note that `value` may be zero."
      }
    },
    "kind": "dev",
    "methods": {
      "allowance(address,address)": {
        "details": "See {IERC20-allowance}."
      },
      "approve(address,uint256)": {
        "details": "See {IERC20-approve}. NOTE: If `amount` is the maximum `uint256`, the allowance is not updated on `transferFrom`. This is semantically equivalent to an infinite approval. Requirements: - `spender` cannot be the zero address."
      },
      "balanceOf(address)": {
        "details": "See {IERC20-balanceOf}."
      },
      "decimals()": {
        "details": "Returns the number of decimals used to get its user representation. For example, if `decimals` equals `2`, a balance of `505` tokens should be displayed to a user as `5.05` (`505 / 10 ** 2`). Tokens usually opt for a value of 18, imitating the relationship between Ether and Wei. This is the value {ERC20} uses, unless this function is overridden; NOTE: This information is only used for _display_ purposes: it in no way affects any of the arithmetic of the contract, including {IERC20-balanceOf} and {IERC20-transfer}."
      },
      "decreaseAllowance(address,uint256)": {
        "details": "Atomically decreases the allowance granted to `spender` by the caller. This is an alternative to {approve} that can be used as a mitigation for problems described in {IERC20-approve}. Emits an {Approval} event indicating the updated allowance. Requirements: - `spender` cannot be the zero address. - `spender` must have allowance for the caller of at least `subtractedValue`."
      },
      "increaseAllowance(address,uint256)": {
        "details": "Atomically increases the allowance granted to `spender` by the caller. This is an alternative to {approve} that can be used as a mitigation for problems described in {IERC20-approve}. Emits an {Approval} event indicating the updated allowance. Requirements: - `spender` cannot be the zero address."
      },
      "name()": {
        "details": "Returns the name of the token."
      },
      "symbol()": {
        "details": "Returns the symbol of the token, usually a shorter version of the name."
      },
      "totalSupply()": {
        "details": "See {IERC20-totalSupply}."
      },
      "transfer(address,uint256)": {
        "details": "See {IERC20-transfer}. Requirements: - `to` cannot be the zero address. - the caller must have a balance of at least `amount`."
      },
      "transferFrom(address,address,uint256)": {
        "details": "See {IERC20-transferFrom}. Emits an {Approval} event indicating the updated allowance. This is not required by the EIP. See the note at the beginning of {ERC20}. NOTE: Does not update the allowance if the current allowance is the maximum `uint256`. Requirements: - `from` and `to` cannot be the zero address. - `from` must have a balance of at least `amount`. - the caller must have allowance for ``from``'s tokens of at least `amount`."
      }
    },
    "version": 1
  },
  "userdoc": {
    "kind": "user",
    "methods": {},
    "version": 1
  }
}