{
  "contractName": "BookNFT",
  "abi": [
    {
      "inputs": [],
      "stateMutability": "nonpayable",
      "type": "constructor"
    },
    {
      "anonymous": false,
      "inputs": [
        {
          "indexed": true,
          "internalType": "address",
          "name": "owner",
          "type": "address"
        },
        {
          "indexed": true,
          "internalType": "address",
          "name": "approved",
          "type": "address"
        },
        {
          "indexed": true,
          "internalType": "uint256",
          "name": "tokenId",
          "type": "uint256"
        }
      ],
      "name": "Approval",
      "type": "event"
    },
    {
      "anonymous": false,
      "inputs": [
        {
          "indexed": true,
          "internalType": "address",
          "name": "owner",
          "type": "address"
        },
        {
          "indexed": true,
          "internalType": "address",
          "name": "operator",
          "type": "address"
        },
        {
          "indexed": false,
          "internalType": "bool",
          "name": "approved",
          "type": "bool"
        }
      ],
      "name": "ApprovalForAll",
      "type": "event"
    },
    {
      "anonymous": false,
      "inputs": [
        {
          "indexed": true,
          "internalType": "address",
          "name": "from",
          "type": "address"
        },
        {
          "indexed": true,
          "internalType": "address",
          "name": "to",
          "type": "address"
        },
        {
          "indexed": true,
          "internalType": "uint256",
          "name": "tokenId",
          "type": "uint256"
        }
      ],
      "name": "Transfer",
      "type": "event"
    },
    {
      "inputs": [
        {
          "internalType": "address",
          "name": "to",
          "type": "address"
        },
        {
          "internalType": "uint256",
          "name": "tokenId",
          "type": "uint256"
        }
      ],
      "name": "approve",
      "outputs": [],
      "stateMutability": "nonpayable",
      "type": "function"
    },
    {
      "inputs": [
        {
          "internalType": "address",
          "name": "owner",
          "type": "address"
        }
      ],
      "name": "balanceOf",
      "outputs": [
        {
          "internalType": "uint256",
          "name": "",
          "type": "uint256"
        }
      ],
      "stateMutability": "view",
      "type": "function",
      "constant": true
    },
    {
      "inputs": [
        {
          "internalType": "uint256",
          "name": "tokenId",
          "type": "uint256"
        }
      ],
      "name": "getApproved",
      "outputs": [
        {
          "internalType": "address",
          "name": "",
          "type": "address"
        }
      ],
      "stateMutability": "view",
      "type": "function",
      "constant": true
    },
    {
      "inputs": [
        {
          "internalType": "address",
          "name": "owner",
          "type": "address"
        },
        {
          "internalType": "address",
          "name": "operator",
          "type": "address"
        }
      ],
      "name": "isApprovedForAll",
      "outputs": [
        {
          "internalType": "bool",
          "name": "",
          "type": "bool"
        }
      ],
      "stateMutability": "view",
      "type": "function",
      "constant": true
    },
    {
      "inputs": [],
      "name": "name",
      "outputs": [
        {
          "internalType": "string",
          "name": "",
          "type": "string"
        }
      ],
      "stateMutability": "view",
      "type": "function",
      "constant": true
    },
    {
      "inputs": [
        {
          "internalType": "uint256",
          "name": "tokenId",
          "type": "uint256"
        }
      ],
      "name": "ownerOf",
      "outputs": [
        {
          "internalType": "address",
          "name": "",
          "type": "address"
        }
      ],
      "stateMutability": "view",
      "type": "function",
      "constant": true
    },
    {
      "inputs": [
        {
          "internalType": "address",
          "name": "from",
          "type": "address"
        },
        {
          "internalType": "address",
          "name": "to",
          "type": "address"
        },
        {
          "internalType": "uint256",
          "name": "tokenId",
          "type": "uint256"
        }
      ],
      "name": "safeTransferFrom",
      "outputs": [],
      "stateMutability": "nonpayable",
      "type": "function"
    },
    {
      "inputs": [
        {
          "internalType": "address",
          "name": "from",
          "type": "address"
        },
        {
          "internalType": "address",
          "name": "to",
          "type": "address"
        },
        {
          "internalType": "uint256",
          "name": "tokenId",
          "type": "uint256"
        },
        {
          "internalType": "bytes",
          "name": "data",
          "type": "bytes"
        }
      ],
      "name": "safeTransferFrom",
      "outputs": [],
      "stateMutability": "nonpayable",
      "type": "function"
    },
    {
      "inputs": [
        {
          "internalType": "address",
          "name": "operator",
          "type": "address"
        },
        {
          "internalType": "bool",
          "name": "approved",
          "type": "bool"
        }
      ],
      "name": "setApprovalForAll",
      "outputs": [],
      "stateMutability": "nonpayable",
      "type": "function"
    },
    {
      "inputs": [
        {
          "internalType": "bytes4",
          "name": "interfaceId",
          "type": "bytes4"
        }
      ],
      "name": "supportsInterface",
      "outputs": [
        {
          "internalType": "bool",
          "name": "",
          "type": "bool"
        }
      ],
      "stateMutability": "view",
      "type": "function",
      "constant": true
    },
    {
      "inputs": [],
      "name": "symbol",
      "outputs": [
        {
          "internalType": "string",
          "name": "",
          "type": "string"
        }
      ],
      "stateMutability": "view",
      "type": "function",
      "constant": true
    },
    {
      "inputs": [
        {
          "internalType": "uint256",
          "name": "tokenId",
          "type": "uint256"
        }
      ],
      "name": "tokenURI",
      "outputs": [
        {
          "internalType": "string",
          "name": "",
          "type": "string"
        }
      ],
      "stateMutability": "view",
      "type": "function",
      "constant": true
    },
    {
      "inputs": [
        {
          "internalType": "address",
          "name": "from",
          "type": "address"
        },
        {
          "internalType": "address",
          "name": "to",
          "type": "address"
        },
        {
          "internalType": "uint256",
          "name": "tokenId",
          "type": "uint256"
        }
      ],
      "name": "transferFrom",
      "outputs": [],
      "stateMutability": "nonpayable",
      "type": "function"
    },
    {
      "inputs": [
        {
          "internalType": "address",
          "name": "user",
          "type": "address"
        },
        {
          "internalType": "address",
          "name": "SmartContract",
          "type": "address"
        },
        {
          "internalType": "uint256",
          "name": "uid",
          "type": "uint256"
        }
      ],
      "name": "MintNFT",
      "outputs": [],
      "stateMutability": "nonpayable",
      "type": "function"
    },
    {
      "inputs": [
        {
          "internalType": "address",
          "name": "from",
          "type": "address"
        },
        {
          "internalType": "address",
          "name": "to",
          "type": "address"
        },
        {
          "internalType": "uint256",
          "name": "TokenId",
          "type": "uint256"
        },
        {
          "internalType": "address",
          "name": "SmartContract",
          "type": "address"
        }
      ],
      "name": "TransferNFT",
      "outputs": [],
      "stateMutability": "nonpayable",
      "type": "function"
    }
  ],
  "bytecode": "0x60806040523480156200001157600080fd5b506040518060400160405280600781526020017f426f6f6b4e4654000000000000000000000000000000000000000000000000008152506040518060400160405280600381526020017f424654000000000000000000000000000000000000000000000000000000000081525081600090816200008f919062000324565b508060019081620000a1919062000324565b5050506200040b565b600081519050919050565b7f4e487b7100000000000000000000000000000000000000000000000000000000600052604160045260246000fd5b7f4e487b7100000000000000000000000000000000000000000000000000000000600052602260045260246000fd5b600060028204905060018216806200012c57607f821691505b602082108103620001425762000141620000e4565b5b50919050565b60008190508160005260206000209050919050565b60006020601f8301049050919050565b600082821b905092915050565b600060088302620001ac7fffffffffffffffffffffffffffffffffffffffffffffffffffffffffffffffff826200016d565b620001b886836200016d565b95508019841693508086168417925050509392505050565b6000819050919050565b6000819050919050565b600062000205620001ff620001f984620001d0565b620001da565b620001d0565b9050919050565b6000819050919050565b6200022183620001e4565b6200023962000230826200020c565b8484546200017a565b825550505050565b600090565b6200025062000241565b6200025d81848462000216565b505050565b5b8181101562000285576200027960008262000246565b60018101905062000263565b5050565b601f821115620002d4576200029e8162000148565b620002a9846200015d565b81016020851015620002b9578190505b620002d1620002c8856200015d565b83018262000262565b50505b505050565b600082821c905092915050565b6000620002f960001984600802620002d9565b1980831691505092915050565b6000620003148383620002e6565b9150826002028217905092915050565b6200032f82620000aa565b67ffffffffffffffff8111156200034b576200034a620000b5565b5b62000357825462000113565b6200036482828562000289565b600060209050601f8311600181146200039c576000841562000387578287015190505b62000393858262000306565b86555062000403565b601f198416620003ac8662000148565b60005b82811015620003d657848901518255600182019150602085019450602081019050620003af565b86831015620003f65784890151620003f2601f891682620002e6565b8355505b6001600288020188555050505b505050505050565b61258d806200041b6000396000f3fe608060405234801561001057600080fd5b50600436106100f55760003560e01c806370a0823111610097578063b5b3a79811610066578063b5b3a79814610282578063b88d4fde1461029e578063c87b56dd146102ba578063e985e9c5146102ea576100f5565b806370a08231146101fc57806395d89b411461022c578063a22cb4651461024a578063a45e6a7714610266576100f5565b8063095ea7b3116100d3578063095ea7b31461017857806323b872dd1461019457806342842e0e146101b05780636352211e146101cc576100f5565b806301ffc9a7146100fa57806306fdde031461012a578063081812fc14610148575b600080fd5b610114600480360381019061010f9190611822565b61031a565b604051610121919061186a565b60405180910390f35b6101326103fc565b60405161013f9190611915565b60405180910390f35b610162600480360381019061015d919061196d565b61048e565b60405161016f91906119db565b60405180910390f35b610192600480360381019061018d9190611a22565b6104d4565b005b6101ae60048036038101906101a99190611a62565b6105eb565b005b6101ca60048036038101906101c59190611a62565b61064b565b005b6101e660048036038101906101e1919061196d565b61066b565b6040516101f391906119db565b60405180910390f35b61021660048036038101906102119190611ab5565b6106f1565b6040516102239190611af1565b60405180910390f35b6102346107a8565b6040516102419190611915565b60405180910390f35b610264600480360381019061025f9190611b38565b61083a565b005b610280600480360381019061027b9190611b78565b610850565b005b61029c60048036038101906102979190611a62565b61086b565b005b6102b860048036038101906102b39190611d14565b61088a565b005b6102d460048036038101906102cf919061196d565b6108ec565b6040516102e19190611915565b60405180910390f35b61030460048036038101906102ff9190611d97565b610954565b604051610311919061186a565b60405180910390f35b60007f80ac58cd000000000000000000000000000000000000000000000000000000007bffffffffffffffffffffffffffffffffffffffffffffffffffffffff1916827bffffffffffffffffffffffffffffffffffffffffffffffffffffffff191614806103e557507f5b5e139f000000000000000000000000000000000000000000000000000000007bffffffffffffffffffffffffffffffffffffffffffffffffffffffff1916827bffffffffffffffffffffffffffffffffffffffffffffffffffffffff1916145b806103f557506103f4826109e8565b5b9050919050565b60606000805461040b90611e06565b80601f016020809104026020016040519081016040528092919081815260200182805461043790611e06565b80156104845780601f1061045957610100808354040283529160200191610484565b820191906000526020600020905b81548152906001019060200180831161046757829003601f168201915b5050505050905090565b600061049982610a52565b6004600083815260200190815260200160002060009054906101000a900473ffffffffffffffffffffffffffffffffffffffff169050919050565b60006104df8261066b565b90508073ffffffffffffffffffffffffffffffffffffffff168373ffffffffffffffffffffffffffffffffffffffff160361054f576040517f08c379a000000000000000000000000000000000000000000000000000000000815260040161054690611ea9565b60405180910390fd5b8073ffffffffffffffffffffffffffffffffffffffff1661056e610a9d565b73ffffffffffffffffffffffffffffffffffffffff16148061059d575061059c81610597610a9d565b610954565b5b6105dc576040517f08c379a00000000000000000000000000000000000000000000000000000000081526004016105d390611f3b565b60405180910390fd5b6105e68383610aa5565b505050565b6105fc6105f6610a9d565b82610b5e565b61063b576040517f08c379a000000000000000000000000000000000000000000000000000000000815260040161063290611fcd565b60405180910390fd5b610646838383610bf3565b505050565b6106668383836040518060200160405280600081525061088a565b505050565b60008061067783610eec565b9050600073ffffffffffffffffffffffffffffffffffffffff168173ffffffffffffffffffffffffffffffffffffffff16036106e8576040517f08c379a00000000000000000000000000000000000000000000000000000000081526004016106df90612039565b60405180910390fd5b80915050919050565b60008073ffffffffffffffffffffffffffffffffffffffff168273ffffffffffffffffffffffffffffffffffffffff1603610761576040517f08c379a0000000000000000000000000000000000000000000000000000000008152600401610758906120cb565b60405180910390fd5b600360008373ffffffffffffffffffffffffffffffffffffffff1673ffffffffffffffffffffffffffffffffffffffff168152602001908152602001600020549050919050565b6060600180546107b790611e06565b80601f01602080910402602001604051908101604052809291908181526020018280546107e390611e06565b80156108305780601f1061080557610100808354040283529160200191610830565b820191906000526020600020905b81548152906001019060200180831161081357829003601f168201915b5050505050905090565b61084c610845610a9d565b8383610f29565b5050565b61085b84848461064b565b6108658183610aa5565b50505050565b600081905061087a8482611095565b6108848382610aa5565b50505050565b61089b610895610a9d565b83610b5e565b6108da576040517f08c379a00000000000000000000000000000000000000000000000000000000081526004016108d190611fcd565b60405180910390fd5b6108e6848484846110b3565b50505050565b60606108f782610a52565b600061090161110f565b90506000815111610921576040518060200160405280600081525061094c565b8061092b84611126565b60405160200161093c929190612127565b6040516020818303038152906040525b915050919050565b6000600560008473ffffffffffffffffffffffffffffffffffffffff1673ffffffffffffffffffffffffffffffffffffffff16815260200190815260200160002060008373ffffffffffffffffffffffffffffffffffffffff1673ffffffffffffffffffffffffffffffffffffffff16815260200190815260200160002060009054906101000a900460ff16905092915050565b60007f01ffc9a7000000000000000000000000000000000000000000000000000000007bffffffffffffffffffffffffffffffffffffffffffffffffffffffff1916827bffffffffffffffffffffffffffffffffffffffffffffffffffffffff1916149050919050565b610a5b816111f4565b610a9a576040517f08c379a0000000000000000000000000000000000000000000000000000000008152600401610a9190612039565b60405180910390fd5b50565b600033905090565b816004600083815260200190815260200160002060006101000a81548173ffffffffffffffffffffffffffffffffffffffff021916908373ffffffffffffffffffffffffffffffffffffffff160217905550808273ffffffffffffffffffffffffffffffffffffffff16610b188361066b565b73ffffffffffffffffffffffffffffffffffffffff167f8c5be1e5ebec7d5bd14f71427d1e84f3dd0314c0f7b2291e5b200ac8c7c3b92560405160405180910390a45050565b600080610b6a8361066b565b90508073ffffffffffffffffffffffffffffffffffffffff168473ffffffffffffffffffffffffffffffffffffffff161480610bac5750610bab8185610954565b5b80610bea57508373ffffffffffffffffffffffffffffffffffffffff16610bd28461048e565b73ffffffffffffffffffffffffffffffffffffffff16145b91505092915050565b8273ffffffffffffffffffffffffffffffffffffffff16610c138261066b565b73ffffffffffffffffffffffffffffffffffffffff1614610c69576040517f08c379a0000000000000000000000000000000000000000000000000000000008152600401610c60906121bd565b60405180910390fd5b600073ffffffffffffffffffffffffffffffffffffffff168273ffffffffffffffffffffffffffffffffffffffff1603610cd8576040517f08c379a0000000000000000000000000000000000000000000000000000000008152600401610ccf9061224f565b60405180910390fd5b610ce58383836001611235565b8273ffffffffffffffffffffffffffffffffffffffff16610d058261066b565b73ffffffffffffffffffffffffffffffffffffffff1614610d5b576040517f08c379a0000000000000000000000000000000000000000000000000000000008152600401610d52906121bd565b60405180910390fd5b6004600082815260200190815260200160002060006101000a81549073ffffffffffffffffffffffffffffffffffffffff02191690556001600360008573ffffffffffffffffffffffffffffffffffffffff1673ffffffffffffffffffffffffffffffffffffffff168152602001908152602001600020600082825403925050819055506001600360008473ffffffffffffffffffffffffffffffffffffffff1673ffffffffffffffffffffffffffffffffffffffff16815260200190815260200160002060008282540192505081905550816002600083815260200190815260200160002060006101000a81548173ffffffffffffffffffffffffffffffffffffffff021916908373ffffffffffffffffffffffffffffffffffffffff160217905550808273ffffffffffffffffffffffffffffffffffffffff168473ffffffffffffffffffffffffffffffffffffffff167fddf252ad1be2c89b69c2b068fc378daa952ba7f163c4a11628f55a4df523b3ef60405160405180910390a4610ee7838383600161123b565b505050565b60006002600083815260200190815260200160002060009054906101000a900473ffffffffffffffffffffffffffffffffffffffff169050919050565b8173ffffffffffffffffffffffffffffffffffffffff168373ffffffffffffffffffffffffffffffffffffffff1603610f97576040517f08c379a0000000000000000000000000000000000000000000000000000000008152600401610f8e906122bb565b60405180910390fd5b80600560008573ffffffffffffffffffffffffffffffffffffffff1673ffffffffffffffffffffffffffffffffffffffff16815260200190815260200160002060008473ffffffffffffffffffffffffffffffffffffffff1673ffffffffffffffffffffffffffffffffffffffff16815260200190815260200160002060006101000a81548160ff0219169083151502179055508173ffffffffffffffffffffffffffffffffffffffff168373ffffffffffffffffffffffffffffffffffffffff167f17307eab39ab6107e8899845ad3d59bd9653f200f220920489ca2b5937696c3183604051611088919061186a565b60405180910390a3505050565b6110af828260405180602001604052806000815250611241565b5050565b6110be848484610bf3565b6110ca8484848461129c565b611109576040517f08c379a00000000000000000000000000000000000000000000000000000000081526004016111009061234d565b60405180910390fd5b50505050565b606060405180602001604052806000815250905090565b60606000600161113584611423565b01905060008167ffffffffffffffff81111561115457611153611be9565b5b6040519080825280601f01601f1916602001820160405280156111865781602001600182028036833780820191505090505b509050600082602001820190505b6001156111e9578080600190039150507f3031323334353637383961626364656600000000000000000000000000000000600a86061a8153600a85816111dd576111dc61236d565b5b04945060008503611194575b819350505050919050565b60008073ffffffffffffffffffffffffffffffffffffffff1661121683610eec565b73ffffffffffffffffffffffffffffffffffffffff1614159050919050565b50505050565b50505050565b61124b8383611576565b611258600084848461129c565b611297576040517f08c379a000000000000000000000000000000000000000000000000000000000815260040161128e9061234d565b60405180910390fd5b505050565b60006112bd8473ffffffffffffffffffffffffffffffffffffffff16611793565b15611416578373ffffffffffffffffffffffffffffffffffffffff1663150b7a026112e6610a9d565b8786866040518563ffffffff1660e01b815260040161130894939291906123f1565b6020604051808303816000875af192505050801561134457506040513d601f19601f820116820180604052508101906113419190612452565b60015b6113c6573d8060008114611374576040519150601f19603f3d011682016040523d82523d6000602084013e611379565b606091505b5060008151036113be576040517f08c379a00000000000000000000000000000000000000000000000000000000081526004016113b59061234d565b60405180910390fd5b805181602001fd5b63150b7a0260e01b7bffffffffffffffffffffffffffffffffffffffffffffffffffffffff1916817bffffffffffffffffffffffffffffffffffffffffffffffffffffffff19161491505061141b565b600190505b949350505050565b600080600090507a184f03e93ff9f4daa797ed6e38ed64bf6a1f0100000000000000008310611481577a184f03e93ff9f4daa797ed6e38ed64bf6a1f01000000000000000083816114775761147661236d565b5b0492506040810190505b6d04ee2d6d415b85acef810000000083106114be576d04ee2d6d415b85acef810000000083816114b4576114b361236d565b5b0492506020810190505b662386f26fc1000083106114ed57662386f26fc1000083816114e3576114e261236d565b5b0492506010810190505b6305f5e1008310611516576305f5e100838161150c5761150b61236d565b5b0492506008810190505b612710831061153b5761271083816115315761153061236d565b5b0492506004810190505b6064831061155e57606483816115545761155361236d565b5b0492506002810190505b600a831061156d576001810190505b80915050919050565b600073ffffffffffffffffffffffffffffffffffffffff168273ffffffffffffffffffffffffffffffffffffffff16036115e5576040517f08c379a00000000000000000000000000000000000000000000000000000000081526004016115dc906124cb565b60405180910390fd5b6115ee816111f4565b1561162e576040517f08c379a000000000000000000000000000000000000000000000000000000000815260040161162590612537565b60405180910390fd5b61163c600083836001611235565b611645816111f4565b15611685576040517f08c379a000000000000000000000000000000000000000000000000000000000815260040161167c90612537565b60405180910390fd5b6001600360008473ffffffffffffffffffffffffffffffffffffffff1673ffffffffffffffffffffffffffffffffffffffff16815260200190815260200160002060008282540192505081905550816002600083815260200190815260200160002060006101000a81548173ffffffffffffffffffffffffffffffffffffffff021916908373ffffffffffffffffffffffffffffffffffffffff160217905550808273ffffffffffffffffffffffffffffffffffffffff16600073ffffffffffffffffffffffffffffffffffffffff167fddf252ad1be2c89b69c2b068fc378daa952ba7f163c4a11628f55a4df523b3ef60405160405180910390a461178f60008383600161123b565b5050565b6000808273ffffffffffffffffffffffffffffffffffffffff163b119050919050565b6000604051905090565b600080fd5b600080fd5b60007fffffffff0000000000000000000000000000000000000000000000000000000082169050919050565b6117ff816117ca565b811461180a57600080fd5b50565b60008135905061181c816117f6565b92915050565b600060208284031215611838576118376117c0565b5b60006118468482850161180d565b91505092915050565b60008115159050919050565b6118648161184f565b82525050565b600060208201905061187f600083018461185b565b92915050565b600081519050919050565b600082825260208201905092915050565b60005b838110156118bf5780820151818401526020810190506118a4565b60008484015250505050565b6000601f19601f8301169050919050565b60006118e782611885565b6118f18185611890565b93506119018185602086016118a1565b61190a816118cb565b840191505092915050565b6000602082019050818103600083015261192f81846118dc565b905092915050565b6000819050919050565b61194a81611937565b811461195557600080fd5b50565b60008135905061196781611941565b92915050565b600060208284031215611983576119826117c0565b5b600061199184828501611958565b91505092915050565b600073ffffffffffffffffffffffffffffffffffffffff82169050919050565b60006119c58261199a565b9050919050565b6119d5816119ba565b82525050565b60006020820190506119f060008301846119cc565b92915050565b6119ff816119ba565b8114611a0a57600080fd5b50565b600081359050611a1c816119f6565b92915050565b60008060408385031215611a3957611a386117c0565b5b6000611a4785828601611a0d565b9250506020611a5885828601611958565b9150509250929050565b600080600060608486031215611a7b57611a7a6117c0565b5b6000611a8986828701611a0d565b9350506020611a9a86828701611a0d565b9250506040611aab86828701611958565b9150509250925092565b600060208284031215611acb57611aca6117c0565b5b6000611ad984828501611a0d565b91505092915050565b611aeb81611937565b82525050565b6000602082019050611b066000830184611ae2565b92915050565b611b158161184f565b8114611b2057600080fd5b50565b600081359050611b3281611b0c565b92915050565b60008060408385031215611b4f57611b4e6117c0565b5b6000611b5d85828601611a0d565b9250506020611b6e85828601611b23565b9150509250929050565b60008060008060808587031215611b9257611b916117c0565b5b6000611ba087828801611a0d565b9450506020611bb187828801611a0d565b9350506040611bc287828801611958565b9250506060611bd387828801611a0d565b91505092959194509250565b600080fd5b600080fd5b7f4e487b7100000000000000000000000000000000000000000000000000000000600052604160045260246000fd5b611c21826118cb565b810181811067ffffffffffffffff82111715611c4057611c3f611be9565b5b80604052505050565b6000611c536117b6565b9050611c5f8282611c18565b919050565b600067ffffffffffffffff821115611c7f57611c7e611be9565b5b611c88826118cb565b9050602081019050919050565b82818337600083830152505050565b6000611cb7611cb284611c64565b611c49565b905082815260208101848484011115611cd357611cd2611be4565b5b611cde848285611c95565b509392505050565b600082601f830112611cfb57611cfa611bdf565b5b8135611d0b848260208601611ca4565b91505092915050565b60008060008060808587031215611d2e57611d2d6117c0565b5b6000611d3c87828801611a0d565b9450506020611d4d87828801611a0d565b9350506040611d5e87828801611958565b925050606085013567ffffffffffffffff811115611d7f57611d7e6117c5565b5b611d8b87828801611ce6565b91505092959194509250565b60008060408385031215611dae57611dad6117c0565b5b6000611dbc85828601611a0d565b9250506020611dcd85828601611a0d565b9150509250929050565b7f4e487b7100000000000000000000000000000000000000000000000000000000600052602260045260246000fd5b60006002820490506001821680611e1e57607f821691505b602082108103611e3157611e30611dd7565b5b50919050565b7f4552433732313a20617070726f76616c20746f2063757272656e74206f776e6560008201527f7200000000000000000000000000000000000000000000000000000000000000602082015250565b6000611e93602183611890565b9150611e9e82611e37565b604082019050919050565b60006020820190508181036000830152611ec281611e86565b9050919050565b7f4552433732313a20617070726f76652063616c6c6572206973206e6f7420746f60008201527f6b656e206f776e6572206f7220617070726f76656420666f7220616c6c000000602082015250565b6000611f25603d83611890565b9150611f3082611ec9565b604082019050919050565b60006020820190508181036000830152611f5481611f18565b9050919050565b7f4552433732313a2063616c6c6572206973206e6f7420746f6b656e206f776e6560008201527f72206f7220617070726f76656400000000000000000000000000000000000000602082015250565b6000611fb7602d83611890565b9150611fc282611f5b565b604082019050919050565b60006020820190508181036000830152611fe681611faa565b9050919050565b7f4552433732313a20696e76616c696420746f6b656e2049440000000000000000600082015250565b6000612023601883611890565b915061202e82611fed565b602082019050919050565b6000602082019050818103600083015261205281612016565b9050919050565b7f4552433732313a2061646472657373207a65726f206973206e6f74206120766160008201527f6c6964206f776e65720000000000000000000000000000000000000000000000602082015250565b60006120b5602983611890565b91506120c082612059565b604082019050919050565b600060208201905081810360008301526120e4816120a8565b9050919050565b600081905092915050565b600061210182611885565b61210b81856120eb565b935061211b8185602086016118a1565b80840191505092915050565b600061213382856120f6565b915061213f82846120f6565b91508190509392505050565b7f4552433732313a207472616e736665722066726f6d20696e636f72726563742060008201527f6f776e6572000000000000000000000000000000000000000000000000000000602082015250565b60006121a7602583611890565b91506121b28261214b565b604082019050919050565b600060208201905081810360008301526121d68161219a565b9050919050565b7f4552433732313a207472616e7366657220746f20746865207a65726f2061646460008201527f7265737300000000000000000000000000000000000000000000000000000000602082015250565b6000612239602483611890565b9150612244826121dd565b604082019050919050565b600060208201905081810360008301526122688161222c565b9050919050565b7f4552433732313a20617070726f766520746f2063616c6c657200000000000000600082015250565b60006122a5601983611890565b91506122b08261226f565b602082019050919050565b600060208201905081810360008301526122d481612298565b9050919050565b7f4552433732313a207472616e7366657220746f206e6f6e20455243373231526560008201527f63656976657220696d706c656d656e7465720000000000000000000000000000602082015250565b6000612337603283611890565b9150612342826122db565b604082019050919050565b600060208201905081810360008301526123668161232a565b9050919050565b7f4e487b7100000000000000000000000000000000000000000000000000000000600052601260045260246000fd5b600081519050919050565b600082825260208201905092915050565b60006123c38261239c565b6123cd81856123a7565b93506123dd8185602086016118a1565b6123e6816118cb565b840191505092915050565b600060808201905061240660008301876119cc565b61241360208301866119cc565b6124206040830185611ae2565b818103606083015261243281846123b8565b905095945050505050565b60008151905061244c816117f6565b92915050565b600060208284031215612468576124676117c0565b5b60006124768482850161243d565b91505092915050565b7f4552433732313a206d696e7420746f20746865207a65726f2061646472657373600082015250565b60006124b5602083611890565b91506124c08261247f565b602082019050919050565b600060208201905081810360008301526124e4816124a8565b9050919050565b7f4552433732313a20746f6b656e20616c7265616479206d696e74656400000000600082015250565b6000612521601c83611890565b915061252c826124eb565b602082019050919050565b6000602082019050818103600083015261255081612514565b905091905056fea26469706673582212206586f5ff0ad02e473f264efb834861b57a265a62e55a99e8983cb54558ffd66264736f6c63430008130033",
  "immutableReferences": {},
  "source": "//SPDX-License-Identifier: UNLICENSED\npragma solidity ^0.8.0;\n\nimport \"@openzeppelin/contracts/token/ERC20/ERC20.sol\";\nimport \"@openzeppelin/contracts/token/ERC721/ERC721.sol\";\n\n// NFT for Books\ncontract BookNFT is ERC721 { \n    constructor () ERC721(\"BookNFT\", \"BFT\") {   \n    }\n\n    function MintNFT (address user, address SmartContract, uint256 uid) public {\n        uint256 newtoken = uid;\n        _safeMint(user, newtoken);\n        _approve(SmartContract, newtoken);\n    }\n\n    function TransferNFT (address from, address to, uint256 TokenId, address SmartContract) public {\n        safeTransferFrom(from, to, TokenId);\n        _approve(SmartContract, TokenId);\n    }\n}",
  "sourcePath": "/Users/mohitsaiaravindnunna/Documents/BookChain-Dapp/BookChain-Contract/contracts/BookNFT.sol",
  "compiler": {
    "name": "solc",
    "version": "0.8.19+commit.7dd6d404.Emscripten.clang"
  },
  "schemaVersion": "3.4.13",
  "updatedAt": "2023-05-08T01:28:01.152Z",
  "networkType": "ethereum",
  "devdoc": {
    "events": {
      "Approval(address,address,uint256)": {
        "details": "Emitted when `owner` enables `approved` to manage the `tokenId` token."
      },
      "ApprovalForAll(address,address,bool)": {
        "details": "Emitted when `owner` enables or disables (`approved`) `operator` to manage all of its assets."
      },
      "Transfer(address,address,uint256)": {
        "details": "Emitted when `tokenId` token is transferred from `from` to `to`."
      }
    },
    "kind": "dev",
    "methods": {
      "approve(address,uint256)": {
        "details": "See {IERC721-approve}."
      },
      "balanceOf(address)": {
        "details": "See {IERC721-balanceOf}."
      },
      "getApproved(uint256)": {
        "details": "See {IERC721-getApproved}."
      },
      "isApprovedForAll(address,address)": {
        "details": "See {IERC721-isApprovedForAll}."
      },
      "name()": {
        "details": "See {IERC721Metadata-name}."
      },
      "ownerOf(uint256)": {
        "details": "See {IERC721-ownerOf}."
      },
      "safeTransferFrom(address,address,uint256)": {
        "details": "See {IERC721-safeTransferFrom}."
      },
      "safeTransferFrom(address,address,uint256,bytes)": {
        "details": "See {IERC721-safeTransferFrom}."
      },
      "setApprovalForAll(address,bool)": {
        "details": "See {IERC721-setApprovalForAll}."
      },
      "supportsInterface(bytes4)": {
        "details": "See {IERC165-supportsInterface}."
      },
      "symbol()": {
        "details": "See {IERC721Metadata-symbol}."
      },
      "tokenURI(uint256)": {
        "details": "See {IERC721Metadata-tokenURI}."
      },
      "transferFrom(address,address,uint256)": {
        "details": "See {IERC721-transferFrom}."
      }
    },
    "version": 1
  },
  "userdoc": {
    "kind": "user",
    "methods": {},
    "version": 1
  }
}